:0E00000027C0FECFFDCFFCCFFBCFFACFF9CF4C
:10000E00F8CFF7CFF6CFF5CFF4CFF3CFF2CFF1CFC6
:10001E00F0CFEFCFEECFEDCF00002D0000000400AB
:10002E0080C001002D4E414E00494E460000080092
:10003E0006002600020062012E0001006901300058
:10004E000000F894EE27ECBBF1E0FBBFEBBFE5BF81
:10005E008DE0A2E0BB27ED938A95E9F780E094E06E
:10006E00A0E6ED930197E9F7ECE3F0E08591959129
:10007E00009761F0A591B59105901590BF01F00123
:10008E0005900D920197E1F7FB01F0CFEFE5EDBF83
:10009E00E4E0EEBFC0E6D1E09CC0E2E0E1BBEFEFF2
:1000AE00E4BBE3E3E0BDE0E0E9B9EAB1E861EAB957
:1000BE00E0B5E668E0BD08955D9BFECF8CB808956F
:1000CE00BA93AA9351D11197A1F451D119F4EDE03D
:1000DE00F0E053C052D119F4E9E0F0E04EC051D136
:1000EE0019F4E8E0F0E049C050D119F4E7E0F0E08F
:1000FE0044C03AD11297A1F43AD119F4EAE0F0E0F3
:10010E003CC03BD119F4E6E0F0E037C03AD119F427
:10011E00E5E0F0E032C039D119F4E4E0F0E02DC0B2
:10012E0023D11397A1F423D119F4EBE0F0E025C00D
:10013E0024D119F4E3E0F0E020C023D119F4E2E079
:10014E00F0E01BC022D119F4E1E0F0E016C00CD1B2
:10015E00149799F40CD119F4ECE0F0E00EC00DD127
:10016E0019F4EEE0F0E009C00CD119F4E0E0F0E093
:10017E0004C00BD111F4EFE0F0E024960895B39B88
:10018E0004C0E1E0F0E005D121C0B29B04C0E2E082
:10019E00F0E0FFD01BC0B19B04C0E3E0F0E0F9D06B
:1001AE0015C0B09B04C0E4E0F0E0F3D00FC0F60140
:1001BE0031966F01E8E0F0E0EC15FD0519F4E4E08E
:1001CE00F0E06F01EC2DA1E013D1E8BBA4E1F9D072
:1001DE00089563DFA0E170D0D2DF6EDFFDCFFFCFD9
:1001EE00AA93E2B3EF70AE2FE881E07FEA2BE2BB79
:1001FE00EAD0AA9AE8D0AA98E6D086C0AA93A88197
:10020E00EFDFE881E295E883A881EADF85E88A9549
:10021E00F1F77AC0AA93E881F0E0EE59FE4FE08143
:10022E00A981AE0FEBDFE981E0936601E881E093EF
:10023E00670122960895A2E0E1DFA3E0C2D0ACE010
:10024E00DDDFA1E0DBDFA3E0BCD0E0E0E0936701FF
:10025E00E09366010895AA93A881AA3031F0E09147
:10026E006801A0916601AE1760F0E0E0EA93A091FC
:10027E006701AF5FA0936701CDDFA881AA3009F4B3
:10028E0043C0E0916601EF5FE0936601A89AA881F2
:10029E00B5DFA89839C0BA93AA931A93A981BA81E7
:1002AE00ED91A983BA831E2FE03019F0A12FD3DF71
:1002BE00F5CF188123960895AA93E1B3E06FE1BBC1
:1002CE00A29AA09AA19AAA98A898A998E881E093D0
:1002DE006801E058E0936401E881E054E093650121
:1002EE00A4E16FD074D073D072D0A0E279DF88EC25
:1002FE0090E00197F1F7A8E281DFA4E07FDFA5E8A7
:10030E007DDFA6E07BDF97DF21960895BA93AA934F
:10031E00A991B991E991F99130962AF4E095F09569
:10032E0031966DE26D93E89480E197E20DD088EE00
:10033E0093E00AD084E6992707D08AE005D06E2F85
:10034E0010D066276C9308956627E817F90720F0FA
:10035E006395E81BF90BC9F7662311F416F008959F
:10036E006894605D6D930895AA81BB810895E881BC
:10037E00F981E130A0E0FA070895E230A0E0FA0733
:10038E000895E330A0E0FA070895E430A0E0FA07FC
:10039E0008955F01C0926001D0926101E091600109
:1003AE00F09161013397FA93EA93D50189DE3F010B
:1003BE007A926A92D201AADFD2016DDFA8ECB0E088
:1003CE000DC0B0E00BC08DE08A95F1F70895A0E363
:1003DE0007DF88EC90E00197F1F70895109639F059
:1003EE0080ED97E00197F1F7A8951197C9F7089559
:1003FE00EE230E2EEA2F19F0EE0F0A94E9F7089568
:00000001FF
